S01000007072656C61625F352E737265630A
S11300000C9434000C9446000C9446000C94460066
S11300100C9446000C9446000C9446000C94460044
S11300200C9446000C9446000C9446000C94460034
S11300300C9446000C9446000C9446000C94460024
S11300400C9446000C9446000C9446000C94460014
S11300500C9446000C9448000C9446000C94460002
S11300600C9446000C94460011241FBECFEFD8E038
S1130070DEBFCDBF21E0A0E0B1E001C01D92A13000
S1130080B207E1F70E9461000C94C4000C940000D4
S11300901F920F920FB60F9211248F93EF93FF9339
S11300A08091790080930001EAE7F0E080818F7EFF
S11300B08083FF91EF918F910F900FBE0F901F904F
S11300C0189560E074E081E00E9474008091000162
S11300D00E94BE002FEF86E791E0215080409040BF
S11300E0E1F700C00000F2CF94B1926094B910928D
S11300F0800010928100813031F4E0E8F0E08081EA
S1130100806C808305C0E0E8F0E0808180688083B3
S113011060347105E1F038F46130710561F06830E4
S1130120710579F025C0611581E07807B1F061159A
S11301307440C9F01DC0E1E8F0E0808181608083F3
S113014017C0E1E8F0E080818260808311C0E1E8BB
S1130150F0E08081836080830BC0E1E8F0E080817F
S11301608460808305C0E1E8F0E08081856080835D
S1130170E0E8F0E0808189608083089590E09093C6
S10F01808900809388000895F894FFCF54
S9030000FC
