S01000007072656C61625F352E737265630A
S11300000C9434000C9446000C9446000C94460066
S11300100C9446000C9446000C9446000C94460044
S11300200C9446000C9446000C9446000C94460034
S11300300C9446000C9446000C9446000C94460024
S11300400C9446000C9446000C9446000C94460014
S11300500C9446000C9448000C9446000C94460002
S11300600C9446000C94460011241FBECFEFD8E038
S1130070DEBFCDBF21E0A0E0B1E001C01D92A430FD
S1130080B207E1F70E9486000C94BD010C940000B5
S11300901F920F920FB60F9211248F93EF93FF9339
S11300A080917C008F7080930001873059F4809197
S11300B0790080930301ECE7F0E08081807F866023
S11300C0808317C0863059F48091790080930201AF
S11300D0ECE7F0E08081807F856080830AC08091B6
S11300E0790080930101ECE7F0E08081807F8760F4
S11300F08083EAE7F0E0808180618083FF91EF9163
S11301008F910F900FBE0F901F901895E1E6F0E0CD
S113011080818068808380818160808360E074E076
S113012080E00E94FD0060E074E080E00E945801DD
S113013060E074E080E00E94C1007894EAE7F0E0B7
S113014080818064808380910301CBEA8C9F812D20
S11301501124869586950E945201809102018C9FFC
S1130160812D1124869586950E94BA018091010102
S11301700E94FB008FE39CE90197F1F700C00000A7
S1130180DDCF9AB190649AB914BC15BC813019F4CE
S113019080EC84BD02C080E884BD84B5836084BDE6
S11301A060347105C1F038F46115710561F068308F
S11301B0710569F01CC0611581E0780781F0611553
S11301C0744089F014C085B5816085BD089585B5F6
S11301D0826085BD089585B5836085BD089585B524
S11301E0846085BD089585B5856085BD089585B510
S11301F0816085BD089587BD089594B1926094B9D6
S11302001092800010928100813031F4E0E8F0E037
S11302108081806C808305C0E0E8F0E080818068A4
S1130220808360347105E1F038F46115710561F083
S11302306830710579F026C0611581E07807B1F066
S113024061157440C9F01EC0E1E8F0E0808181606E
S113025080831DC0E1E8F0E080818260808317C064
S1130260E1E8F0E080818360808311C0E1E8F0E0A0
S11302708081846080830BC0E1E8F0E08081856048
S1130280808305C0E1E8F0E0808181608083E0E85C
S1130290F0E0808181608083E1E8F0E08081886023
S11302A08083089590E09093890080938800089556
S11302B094B1986094B91092B0001092B10081305A
S11302C031F4E0EBF0E08081806C808305C0E0EBEA
S11302D0F0E0808180688083E0EBF0E080818360DF
S11302E080836034710541F148F468307105C1F0D0
S11302F060327105D9F0672BB9F50CC0611581E046
S1130300780731F1611584E0780741F160387105AF
S113031059F518C0E1EBF0E0808181608083089595
S1130320E1EBF0E08081826080830895E1EBF0E00E
S11303308081836080830895E1EBF0E080818460B4
S113034080830895E1EBF0E08081856080830895E7
S1130350E1EBF0E08081866080830895E1EBF0E0DA
S11303608081876080830895E1EBF0E08081816083
S1110370808308958093B3000895F894FFCF1E
S9030000FC
